:200000000C9438080C9460080C9460080C9460080C9460080C9460080C9460080C946008C8
:200020000C9460080C9460080C9460080C9439150C9460080C9460080C9460080C9460089A
:200040000C94D4130C9460080C9460080C9460080C9460080C9460080C9460080C946008E1
:200060000C941E140C94600800407A10F35A00A0724E18090010A5D4E80000E876481700E0
:2000800000E40B54020000CA9A3B000000E1F505000080969800000040420F000000A0863C
:2000A00001000000102700000000E803000000006400000000000A000000000001000000AE
:2000C00000002C76D888DC674F0823DFC1DFAE59E1B1B796E5E3E453C63AE651997696E839
:2000E000E6C28426EB898C9B62ED407C6FFCEFBC9C9F40F2BAA56FA5F490055A2AF75C931F
:200100006B6CF9676DC11BFCE0E40D47FEF520E6B500D0ED902E0300943577050080841EB8
:20012000080000204E0A000000C80C333333330F986E12831141EF8D2114893BE65516CF0E
:20014000FEE6DB18D1844B381BF77C1D901DA4BBE424203284725E228100C9F124ECA1E598
:200160003D27FFE0FFD1AFFF32FFD0FFFEFFE0FFD1AEFFD0FFFEFFE0FFD11000FFFEFFD00C
:20018000FFE0FFC1FFD1AED580A83FD300408D142000A1C8DA1281CFD9F1DB402EA4A6AF81
:2001A000FFD0FFFE00000000240027002A00000000080002010000030407000000000000E5
:2001C00000001F1C1F1E1F1E1F1F1E1F1E1F01020408102040800102040810200102040865
:2001E000102000000000250028002B00040404040404040402020202020203030303030319
:20020000001117FFFA0B021B04CD20FFFD0EFD0BFD000000040001020B0B040100C0C0C033
:20022000C0C0C0808000C0C0050303070108D8D890090A140900001B001B001B007F8036ED
:20024000003600FF006C006C006C00070E0E0800FE107CD6D6D0F0781C16D6D67C10100C06
:200260000B160D00007840CCC0CD8079000300060004000DE00B301B3011E0090A140B01A2
:200280000038006C006C0038007300FB00CE00C600CF007D80020303040108C0C080040E21
:2002A0000E0501FD306060C0C0C0C0C0C0C0C0606030040E0E0500FDC060603030303030BB
:2002C0003030306060C005040406000720F870D8080707090001181818FF181818030303DC
:2002E0000400FF6060C0030101040004E0020202040100C0C0040B0B040000101030202055
:20030000604040C08080070B0B080000386CC6C6C6C6C6C6C66C38040B0B08010030F030F3
:200320003030303030303030070B0B0800007CC6C6060E0C183060C0FE070B0B0800007CE9
:20034000C6C606063C0606C6C67C080B0B080000060E1E3666C6C6FF060606070B0B0800FF
:20036000007E6060C0FC0E0606C6CC78070B0B0800003C6666C0DCE6C6C6C6C67C070B0BFF
:20038000080000FE060C0C18183030606060070B0B0800007CC6C6C6C67CC6C6C6C67C07B9
:2003A0000B0B0800007CC6C6C6C6C67E06C6CC78020808050200C0C000000000C0C0030912
:2003C000090501FF6060000000006060C00605050801021C70C0701C070303090103FE00C4
:2003E000FE060505080102E0380C38E0070B0B0901007CC6C6060C1830300030300D0C185E
:200400000E00FF0F8038E0707066B0CD98D998DB18DB30CEE0600031801F000A0B160A004B
:20042000000C000C001E0012003300330061807F806180C0C0C0C0080B0B0A0100FEC7C39C
:20044000C3C6FCC6C3C3C7FE090B160B01001F007B806080C000C000C000C000C000608036
:200460007B801F00090B160B0100FC00C700C300C180C180C180C180C180C300C700FC00DB
:20048000070B0B090100FEC0C0C0C0FEC0C0C0C0FE070B0B090100FEC0C0C0C0FCC0C0C0DA
:2004A000C0C0090B160B01001F007B806080C000C000C780C180C18061807B801E80080BB6
:2004C0000B0A0100C3C3C3C3C3FFC3C3C3C3C3020B0B040100C0C0C0C0C0C0C0C0C0C0C00C
:2004E000070B0B08000006060606060606C6C6EE7C090B160A0100C300C600CC00D800F065
:2005000000F000D800CC00C600C300C180070B0B080100C0C0C0C0C0C0C0C0C0C0FE0B0BC3
:20052000160D0100C060C060E0E0E0E0F1E0D160D160DB60CA60CE60C460090B160B0100B7
:20054000C180E180E180D180D980C980CD80C580C380C380C1800A0B160C01001E00738003
:200560006180C0C0C0C0C0C0C0C0C0C0618073801E00080B0B0A0100FEC7C3C3C7FEC0C06F
:20058000C0C0C00A0B160C01001E0073806180C0C0C0C0C0C0C0C0C6C0638073801EC009AE
:2005A0000B160B0100FE00C700C300C300C600FE00C700C300C300C300C180080B0B0A0185
:2005C000007EE7C3E0781E0703C3EE7C080B0B080000FF18181818181818181818090B1607
:2005E0000B0100C180C180C180C180C180C180C180C180C18063003E000A0B160A0000C010
:20060000C0C0C0618061807380330033001E001E000C000C000E0B160E0000C30CC30CC38D
:200620000C6798649864986CD82CD0387018601860090B16090000C180C180630036001C75
:20064000001C00360063006300C180C1800A0B160A0000C0C061806180330033001E001EE7
:20066000000C000C000C000C00080B0B090000FF03060C1C18307060C0FF040E0E0501FDF9
:20068000F0C0C0C0C0C0C0C0C0C0C0C0C0F0040B0B0400008080C040406020203010100428
:2006A0000E0E0500FDF0303030303030303030303030F0060505080106307848CCCC08014C
:2006C000010800FDFF030202050109C06007080808010078CC0C7CCCCCDC76070B0B0901E2
:2006E00000C0C0C0D8ECC6C6C6C6ECD8060808080100386CCCC0C0CC6C38070B0B09010074
:20070000060606366EC6C6C6C66E3606080808010078CCCCFCC0C0EC78050B0B0400003801
:200720006060F060606060606060070B0B0901FD3A6EC6C6C6C66E3606CE7C070B0B09016A
:2007400000C0C0C0DCEEC6C6C6C6C6C6020B0B040100C0C000C0C0C0C0C0C0C0C0030E0E2F
:200760000400FD606000606060606060606060E0C0060B0B080100C0C0C0CCD8F0F0D8D81F
:20078000CCCC020B0B040100C0C0C0C0C0C0C0C0C0C0C00A08100C0100DB80EEC0CCC0CCD4
:2007A000C0CCC0CCC0CCC0CCC0070808090100DCEEC6C6C6C6C6C6070808090100386CC62F
:2007C000C6C6C66C38070B0B0901FDD8ECC6C6C6C6ECD8C0C0C0070B0B0901FD366EC6C6CB
:2007E000C6C66E36060606050808060100D8F8C0C0C0C0C0C006080808010078CCE0781C74
:200800000CEC78050A0A0500006060F860606060606830070808090100C6C6C6C6C6C6EE67
:2008200076080808080000C3C36666243C18180A08100A0000CCC0CCC0CCC06D806D803363
:200840000033003300070808070000C6C66C38386CC6C6080B0B0800FDC3C36666243C18C7
:2008600018183070060808060000FC0C18303060C0FC050E0E0600FD183030303060C06074
:20088000303030303018010E0E0402FD8080808080808080808080808080050E0E0601FD0B
:2008A000C0606060603018306060606060C007030309010372DE8CFFFFFFFFFFFFFFFFFFF3
:2008C000FFFFFFFFFFFFFFFFFFFFFFFFFFFFFFFFFFFFFFFFFFFFFFFF000000040001020B1E
:2008E0000B0401FDC0C0004040C0C0C0C0C0C0070A0A0800FF043C6EC8D0D0E6667C400823
:200900000B0B0800003C666660FC30303060FBDE070707080002827C6C6C6C7C82080B0B0F
:20092000090000C3C3C366663C7E187E1818010E0E0402FD808080808080000080808080F9
:200940008080060E0E0801FD78CCCCE078DCCCCCEC781CCCCC78050202050009D8D80A0B27
:20096000160C01001E0061804C80D2C090409040904092404C8061801E00050707060004CD
:20098000709070D0F800F8070505090102366CD86C36070404090102FEFE020203010104CA
:2009A0000004E00A0B160C01001E0061805C80924092409C4092409240528061801E000546
:2009C0000101050009F804040406010760909060080909090000181818FF18181800FF0460
:2009E000060605000560B03060C0F004060605000560B06030B06003020205010960C0078A
:200A00000B0B0901FDC6C6C6C6C6C6EEF6C0C0C0080E0E0800FD3F7AFAFAFA7A3A0A0A0A4F
:200A20000A0A0A0A020202040103C0C00503030500FD18D87003060604000560E06060601B
:200A40006005070706000470D8D8D87000F8070505090102D86C366CD80C0B160C00006144
:200A600080E180630063006600662006600CE00D6019F018600B0B160C00006180E18063C6
:200A8000006300660066C007600C600CC0198019E00C0B160C00006180B18063003300B69F
:200AA00000662006600CE00D6019F01860070B0B0901FD18180018183060C0C6C67C0A0E7C
:200AC0001C0A000018000C0000000C000C001E0012003300330061807F806180C0C0C0C05D
:200AE0000A0E1C0A000006000C0000000C000C001E0012003300330061807F806180C0C0B7
:200B0000C0C00A0E1C0A00000E001B0000000C000C001E0012003300330061807F8061807F
:200B2000C0C0C0C00A0E1C0A00000D00160000000C000C001E0012003300330061807F80C6
:200B40006180C0C0C0C00A0E1C0A00003300330000000C000C001E00120033003300618081
:200B60007F806180C0C0C0C00A0E1C0A00000C0012000C000C000C001E001200330033007F
:200B800061807F806180C0C0C0C00E0B160F00000FFC0F001B001300330033F863007F00CE
:200BA0006300C300C3FC090E1C0B01FD1F007B806080C000C000C000C000C00060807B807F
:200BC0001F00060036001C00070E0E090100301800FEC0C0C0C0FEC0C0C0C0FE070E0E0903
:200BE00001000C1800FEC0C0C0C0FEC0C0C0C0FE070E0E0901001C3600FEC0C0C0C0FEC09B
:200C0000C0C0C0FE070E0E0901006C6C00FEC0C0C0C0FEC0C0C0C0FE030E0E040000C06054
:200C2000006060606060606060606060030E0E04010060C000C0C0C0C0C0C0C0C0C0C0C010
:200C4000050E0E04000070D8006060606060606060606060050E0E040000D8D80060606012
:200C600060606060606060600A0B160B00007E006380618060C060C0F8C060C060C06180E3
:200C800063807E00090E1C0B01001A002C000000C180E180E180D180D980C980CD80C580E6
:200CA000C380C380C1800A0E1C0C010018000C0000001E0073806180C0C0C0C0C0C0C0C016
:200CC000C0C0618073801E000A0E1C0C010006000C0000001E0073806180C0C0C0C0C0C0DD
:200CE000C0C0C0C0618073801E000A0E1C0C01000E001B0000001E0073806180C0C0C0C0A6
:200D0000C0C0C0C0C0C0618073801E000A0E1C0C01000D00160000001E0073806180C0C08B
:200D2000C0C0C0C0C0C0C0C0618073801E000A0E1C0C01003300330000001E007380618028
:200D4000C0C0C0C0C0C0C0C0C0C0618073801E00080707090001C3663C183C66C30C0B16F2
:200D60000C00000F3039E030C061E0636066606C60786030C079C0CF00090E1C0B01001862
:200D8000000C000000C180C180C180C180C180C180C180C180C18063003E00090E1C0B011E
:200DA0000006000C000000C180C180C180C180C180C180C180C180C18063003E00090E1C04
:200DC0000B01001C0036000000C180C180C180C180C180C180C180C180C18063003E0009C2
:200DE0000E1C0B0100630063000000C180C180C180C180C180C180C180C180C18063003E0D
:200E0000000A0E1C0A000006000C000000C0C061806180330033001E001E000C000C000C7A
:200E2000000C00080B0B0A0100C0C0FEC7C3C3C7FEC0C0C0060B0B08010078CCCCCCD8D8FC
:200E4000CCCCCCCCD8070B0B08010030180078CC0C7CCCCCDC76070B0B0801001830007880
:200E6000CC0C7CCCCCDC76070B0B080100386C0078CC0C7CCCCCDC76070B0B080100345802
:200E80000078CC0C7CCCCCDC76070B0B0801006C6C0078CC0C7CCCCCDC76070B0B080100C2
:200EA00030483078CC0C7CCCCCDC760B08100D01007BC0CE600C607FE0CC00CC00DE607722
:200EC000C0070B0B0901FD3C66C6C0C0C6663C185870060B0B08010060300078CCCCFCC07D
:200EE000C0EC78060B0B08010018300078CCCCFCC0C0EC78060B0B080100386C0078CCCC98
:200F0000FCC0C0EC78060B0B0801006C6C0078CCCCFCC0C0EC78030B0B040000C060006067
:200F200060606060606060030B0B04010060C000C0C0C0C0C0C0C0C0050B0B04000070D86C
:200F4000006060606060606060050B0B040000D8D8006060606060606060070B0B0901009B
:200F60006C38483C6CC6C6C6C66C38070B0B090100345800DCEEC6C6C6C6C6C6070B0B09DA
:200F80000100301800386CC6C6C6C66C38070B0B090100183000386CC6C6C6C66C38070BC7
:200FA0000B090100386C00386CC6C6C6C66C38070B0B090100345800386CC6C6C6C66C3805
:200FC000070B0B0901006C6C00386CC6C6C6C66C38080707090001181800FF001818070824
:200FE000080901003A6CCED6D6E66CB8070B0B090100301800C6C6C6C6C6C6EE76070B0B21
:201000000901000C1800C6C6C6C6C6C6EE76070B0B090100386C00C6C6C6C6C6C6EE7607C0
:201020000B0B0901006C6C00C6C6C6C6C6C6EE76080E0E0800FD0C1800C3C36666243C1899
:2010400018183070070E0E0901FDC0C0C0D8ECC6C6C6C6ECD8C0C0C0080E0E0800FD3636E1
:2010600000C3C36666243C1818183070F515721B11241FBECFEFD8E0DEBFCDBF11E0A0E01D
:20108000B1E0EAEAF4E402C005900D92A834B107D9F723E0A8E4B1E001C01D92AC31B20793
:2010A000E1F718E0C7E3D8E004C02197FE010E94D31FC633D107C9F70E94E7160C944822B5
:2010C0000C940000089580E00895DC0115961C92159714961C92149713961C9213971C9242
:2010E00081E011968C93119711968C911197282F2150330BF901EE53FE4FE491823009F403
:20110000EF5FE11102C08F5FECCF81E012968C93089580E480937C0080917A0080648093EA
:201120007A0080917A0086FDFCCF809178009091790008958F929F92AF92BF92CF92DF92E6
:20114000EF92FF920F931F93FC014B01AA24BB24C52ED62EE72EFF24BC2DA42F9091BA026B
:20116000B82C992391F0A92FB0E0A89D9001A99D300DB89D300D1124B32E9C9D6001112416
:20118000BD2D949F80011124A12F4091C0022091BB023091BC028091BD02481324C0CF014D
:2011A000880F991F8E0F9F1F820F931FE091BD02E80FF92FF11DB082E091BE02E80FF92F63
:2011C000F11DB0832091BF02820F911DFC01A0831F910F91FF90EF90DF90CF90BF90AF9043
:2011E0009F908F900895CF01880F991F880F991F820F931FFC01E40FF11D1082D7CF90E0AD
:20120000FC01E255FE4F2491FC01E253FE4F3491FC01E451FE4FE491EE23C9F0222339F028
:20122000233001F1A8F4213019F1223029F1F0E0EE0FFF1FEE51FE4FA591B4918FB7F89442
:20124000EC91611126C030953E233C938FBF08952730A9F02830C9F0243049F780918000B3
:201260008F7D03C0809180008F7780938000DFCF84B58F7784BDDBCF84B58F7DFBCF80917D
:20128000B0008F778093B000D2CF8091B0008F7DF9CF3E2BDACFCF93DF9390E0FC01E25317
:2012A000FE4F249184519E4FFC0184918823D1F090E0880F991FFC01EC55FE4FA591B49127
:2012C000FC01EE51FE4FC591D49161110EC09FB7F8948C91E22FE0958E238C932881E22387
:2012E000E8839FBFDF91CF9108958FB7F894EC91E22BEC938FBFF6CF3FB7F894809117021E
:2013000090911802A0911902B0911A0226B5A89B05C02F3F19F00196A11DB11D3FBFBA2F85
:20132000A92F982F8827BC01CD01620F711D811D911D42E0660F771F881F991F4A95D1F756
:2013400008950F931F93CF93DF93CDB7DEB729970FB6F894DEBF0FBECDBF8091BB029091B9
:20136000BC02892B09F47CC00E947C090091C1021091C2022091C3023091C40260177107F6
:201380008207930740F46093C1027093C2028093C3029093C4020091C1021091C20220914E
:2013A000C3023091C402601B710B820B930B6C32714081059105C0F2F8948091B60290912C
:2013C000B7029A838983E091BB02F091BC02DF011196808189879091B202E091C502F09198
:2013E000C6028091C702992309F445C09081982B98879081809589238F838F818C8388E02F
:201400008B8358856F8149853B812C8189819A81508347FD252F3A952083262F39F0441FD7
:2014200000C000006083000000C0F2CF38E04D9160830000019761F7F093C602E093C5023A
:2014400049873B832C839A83898378940E947C096093C1027093C2028093C3029093C402B5
:2014600029960FB6F894DEBF0FBECDBFDF91CF911F910F9108959081982B98879081809590
:2014800089238F838F818E8388E08D8358856F8149853D812E8189819A81508347FD252F5D
:2014A00000C000C0208300C000C000C000C000C060830000262F3A9541F0441F000000C0EE
:2014C00000C000C000C000C0E8CF38E04D9100C0608300C0019709F7F093C602E093C502DF
:2014E00049873D832E83AFCF8F929F92AF92BF92CF92DF92EF92FF920E947C094B015C0195
:201500008AE2C82ED12CE12CF12C0E947C09681979098A099B09683E734081059105A8F3D1
:2015200021E0C21AD108E108F10888EE880E83E0981EA11CB11CC114D104E104F10429F7C0
:20154000FF90EF90DF90CF90BF90AF909F908F900895AF92BF92CF92DF92EF92FF920F931E
:201560001F93CF93DF936C017B018B01040F151FEB015E01AE18BF08C017D10759F069915F
:20158000D601ED91FC910190F081E02DC6010995892B79F7C501DF91CF911F910F91FF905C
:2015A000EF90DF90CF90BF90AF9008951F93CF93DF93C1E0C093C901882399F1D091B80021
:2015C0001091BA008091BC008A7B8093BC0060E082E10E94FF0860E083E10E94FF081092D4
:2015E0008702C09366021092610261E082E10E94FF0861E083E10E94FF088091B9008E7F30
:201600008093B9008091B9008D7F8093B90088E48093B80085E48093BC001093BA00D0932D
:20162000B800DF91CF911F910895CF92DF92EF92FF920F931F93CF93C82F813208F096C043
:201640000E947C096B017C0180918702811169C081E080938702809366029FEF9093650295
:20166000109264029C0F909363028093620280916202806D8093620280916102813009F0C1
:2016800077C0109261020E947C096B017C01809162028093BB008091890290918A02A09141
:2016A0008B02B0918C02892B8A2B8B2BA1F00E947C090091890210918A0220918B023091AF
:2016C0008C026C197D098E099F09061717072807390708F447C08091BC0083FDD8CF85EC20
:2016E0008093BC000E947C096B017C0180918702813009F43FC0809164028C1710F4C09155
:201700006402A1E4B2E0E7E6F2E080E08C1354C08C2FCF911F910F91FF90EF90DF90CF9053
:2017200008958091890290918A02A0918B02B0918C02892B8A2B8B2B09F486CF0E947C099E
:201740000091890210918A0220918B0230918C026C197D098E099F090617170728073907BF
:2017600008F072CF809188020E94D60AC0E0D0CF85EEB6CF8091890290918A02A0918B02D5
:20178000B0918C02892B8A2B8B2B09F4AFCF0E947C090091890210918A0220918B02309171
:2017A0008C026C197D098E099F09061717072807390708F09BCFD6CF9D9191938F5FA6CFEB
:2017C0008F929F92AF92BF92CF92DF92EF92FF920F931F93CF93DF93D0914002D13208F07B
:2017E000D7C0182FC0913F020E947C096B017C018091870281116BC082E080938702109371
:2018000066028FEF8093650210926402D0936302AFE1B2E0E1E4F2E080E0D81391C01092A1
:20182000620280916202CC0FC82BC093620280916102813009F088C0109261020E947C09B8
:201840006B017C01809162028093BB008091890290918A02A0918B02B0918C02892B8A2B1D
:201860008B2BA1F00E947C090091890210918A0220918B0230918C026C197D098E099F09DA
:20188000061717072807390708F442C08091BC0083FDD8CF85EC8093BC000E947C096B01D9
:2018A0007C0180918702823009F450C0809165028F3F09F46FC080916502803209F46CC08D
:2018C00080916502803309F469C084E026C08091890290918A02A0918B02B0918C02892BE3
:2018E0008A2B8B2B09F484CF0E947C098090890290908A02A0908B02B0908C026C197D0929
:201900008E099F0986169706A806B90608F070CF809188020E94D60A85E010921E021092C5
:20192000400210921D02DF91CF911F910F91FF90EF90DF90CF90BF90AF909F908F9008952F
:201940009D9191938F5F69CF85EEA5CF8091890290918A02A0918B02B0918C02892B8A2BE9
:201960008B2B09F49ECF0E947C090091890210918A0220918B0230918C026C197D098E09A8
:201980009F09061717072807390708F08ACFC0CF81E0C3CF80E0C1CF82E0BFCF83E0BDCF53
:2019A0002091EA01260F3327331F21323105ECF420918702FC0190E080E0243069F082E02B
:2019C0000895A091EA012191AC0146535E4FA40FB52FB11D2C930196861798F38091EA01CA
:2019E000680F6093EA0180E0089581E008950895E0910E0280910D02E81730F4F0E0E95924
:201A0000FD4F808190E008958FEF9FEF089590910E0280910D022FEF3FEF981748F4E92F23
:201A2000F0E0E959FD4F208130E09F5F90930E02C901089580910D0290910E02891B990B66
:201A40000895CF92DF92EF92FF920F931F93CF93DF937C01CB018A0120911D02222389F07B
:201A6000EB016B01C40ED51ECC15DD0569F06991D701ED91FC910190F081E02DC7010995DB
:201A8000F3CF642F0E94D00CC801DF91CF911F910F91FF90EF90DF90CF900895CF93DF933D
:201AA0001F92CDB7DEB7698320911D022223F9F020914002203258F021E030E0FC01338321
:201AC000228390E080E00F90DF91CF91089580911E02E82FF0E0E15EFD4F998190838F5FC7
:201AE00080931E028093400281E090E0ECCF61E0CE0101960E94D00CF7CFFC0180819281D6
:201B0000980F92832181921760F494819F5F94839381890F821710F08FEF820F838381E085
:201B2000089580E00895FC011282808181508383148208952EE93FE0009709F40895F9010E
:201B40003197F1F70197F8CFCF93DF9300D0CDB7DEB720ED37E03A8329839091BC00982394
:201B600011F081E00FC029813A81232B81F480911C0281FDF6CF80911B0281110DC091E09C
:201B800090931B020F900F90DF91CF91089529813A8121503109DFCF80E0F4CF84EA8093F8
:201BA000BC0061E080E80E94A40D811102C080E008958091B900887F883051F0803141F070
:201BC00080911B028111F3CF82E080931B02EFCF88E78093BB0084E88093BC0062E080E811
:201BE0000E94A40D882319F380911C0281FD05C08091B900887F883119F781E0089584E964
:201C00008093BC0064E080E10C94A40D8093BB0084E88093BC0063E080E80E94A40D88234D
:201C2000A1F080911C0281FD0DC08091B900887F883241F080911B02811106C092E09093C2
:201C40001B02089581E0089580E0089510921B02089580931C021092B90084FF05C08CE033
:201C60008093B8000C94260E88E4FACFCF93DF93FC0123A5222389F0EC010E94CE0D81113D
:201C800004C080E0DF91CF9108958EA1811107C00E94060E8823A9F31BA681E0F3CF80E4E6
:201CA000F7CF0F931F93CF93DF93C62FD42F8901633001F138F4613099F0623009F449C051
:201CC000C1E012C0663029F1673091F16530C1F70E94360E811117C00E94FF0DC0E004C01A
:201CE000FC0186A50E94290E8C2FDF91CF911F910F910895FC0116A221E023A74111E0CFEA
:201D00000E94FF0DDDCF8D2F0E94060E8111D8CFE3CF0E94360E8823F9F2DD2389F2F8011C
:201D200081918F010E94060E8823B1F2D150F5CF0E94360E882381F2DD2311F2F801849103
:201D40000E94060EC82F882379F20F5F1F4FD150F3CFFC0146A321E023A7B2CFDB01149649
:201D6000ED91FC9130E020E065E00994DB011496ED91FC9130E020E062E00994DB01149660
:201D8000ED91FC9130E020E063E00994CF92DF92EF92FF920F931F93CF93DF938C017B0133
:201DA0006A0180E0F601C491811110C081E0CF3F49F04C2FB701C8010E94AE0E882309F400
:201DC00044C080E0BFEFCB1ADB0AECCF4FEFCF3F89F3CE3FD9F1C03FA0F7C03E38F04C2F96
:201DE0004F70B701C8010E94B60EEBCFC03D38F04C2F4F70B701C8010E94BE0EE2CFC03C88
:201E0000F8F0D7011496ED91FC9130E020E040E064E0C8010995C295C07FCE5FD0E0CE0130
:201E20000E949A0DD7011496ED91FC9130E020E041E064E0C8010995CE010E949A0DC1CF48
:201E4000C7FDBFCF8C2F90E0F8CF80E0DF91CF911F910F91FF90EF90DF90CF900895DC0168
:201E60001696ED91FC91179712968C91481B477081E090E001C0880F4A95EAF7E60FF11D32
:201E80003081222319F0832B8083089580958323FBCFFB014181DC0112962C91129742176E
:201EA00068F013962C911397241740F0608115962C91621718F424810C942F0F0895DB0185
:201EC000ED91FC9109940F931F93CF93DF931F92CDB7DEB70091E0021091E102E0910F03EE
:201EE000F091100382E0099530E020E04AE0B8018EED92E00E945F0F182FE0910F03F09113
:201F0000100383E00995E0910F03F091100380E009951123B9F16091E0027091E1029E0164
:201F20002F5F3F4F46E48EED92E00E945F0F89818093DE026091E0027091E1029E012F5F7D
:201F40003F4F47E48EED92E00E945F0F89818093DF026091E0027091E10230E020E048E4DA
:201F60008EED92E00E945F0F8093E9026091E0027091E10221E133E047E18EED92E00E94E3
:201F80005F0F11E0812F0F90DF91CF911F910F9108950B96FC01849108950A96FC018491D4
:201FA0000895FC01849108950E94D10F882321F0823011F083E0089586E00895FC01E60FEF
:201FC000F11D849190E0982F88273196E4918E0F911D089568E00C94DE0F66E00C94DE0F2C
:201FE0005F926F927F928F929F92AF92BF92CF92DF92EF92FF920F931F93CF93DF93EC0101
:20200000E62EF42EC22E0C811D81C8010E94D10FD82E8C819D810E94D40F982E21E0AA24D9
:20202000AA94D21202C02FE0A22E8C819D810E94CD0FD82E8C819D810E94C90FB82E8C8196
:202040009D810E94EA0FE0E6EC1578F4009769F0080F191F91E6D92EBC14C0F4188A1B8A0C
:202060001C8A198A1A8A80E0A0C08C819D810E94ED0FF0E4FC1538F4009729F0080F191FDA
:2020800081E4D82EE9CF0F5E1F4FE6CFBD1430F3892D90E0F80124912F3F31F40F5F1F4F56
:2020A000BD14E1F2D394F6CFCD1072C08C819D810E94D10F98012F5F3F4FF801882319F032
:2020C000823009F04EC084918B8BF90124912C8BF8013396E491E88BF8013496E491E98B60
:2020E000F8013596E491EA8B0115110509F4BBCF8C819D810E94D40F3C89F31A9A89F91AC7
:202100009FEF930F9F0D2CA94EA94F1508F449C0921718F49F1508F047C02B899989E90E79
:202120009FEF920F9E0D4BA95DA95E1508F44DC0941718F49E1508F037C0080F111D295F29
:20214000722E7694769476946F2C630E5E01FCE1AF0EB11C872C912CF61431F15E2C680160
:202160004AC08491982F9F7092509A8B82958F70898BF9012491822F8F708C8B22952F706D
:202180002B8BF8013296E491E295EF70E88BACCF3296E491EA21E80FF92FF11D0E0F1F1FBF
:2021A0007FCF921708F0B6CF8889DF91CF911F910F91FF90EF90DF90CF90BF90AF909F90E1
:2021C0008F907F906F905F900895941708F0B2CFEBCFF60184916A817B815C8EFD8E1F8E53
:2021E0008E8F95014BE3CE010E945F0FFFEFCF1ADF0A28E0520E8C2D801B871550F3080DAF
:20220000191DF394A9CFFF920F931F93CF93DF93D82FF62EC72FE091F302F091F4028EED57
:2022200092E00995D80F0F2D1C2FC0E0F80121918F01211107C08C2FDF91CF911F910F9171
:20224000FF9008954D2F6C2F8EED92E00E94F00FC80FECCFAF92BF92CF92DF92FF920F9384
:202260001F93CF93DF936C018B01F42EE90180E1481709F47EC0841778F1AAE04A1709F4EC
:2022800061C0BFE04B1709F47FC0F80102811381F2E3FF1609F4DDC0FF1508F48EC085E188
:2022A000F81609F4DBC0A7E1FA1609F4ECC0B4E1FB1265C0D8011696ED91FC911797159687
:2022C0008C918E0F9F2F911D11928E179F07E1F7C8010E94930D53C0E1E14E1709F451C0AF
:2022E000F5E14F13D2CFFB01A280B38046E751E0C6010E94C60ED50114964C91406BB80158
:20230000C6010E94AE0E41E0B801C6010E94B60EF50126813781D8011496ED91FC91D501D8
:2023200015964C9166E0C601099581111CC080E0DF91CF911F910F91FF90DF90CF90BF90D0
:20234000AF900895DB011496ED91FC9130E020E042E061E0C60109954EE751E0B801C60152
:202360000E94C60E92CF40E0B801C6010E94BE0E8CCF4DE651E0B801C6010E94C60E81E062
:20238000D7CF42E651E0F7CF41E0C6010E94BE0E40E0B801C6010E94B60E41E8B801C60173
:2023A0000E94AE0E4881B801C6010E94AE0E40E0B801C6010E94BE0EE2CFE6E4FE1609F47E
:2023C0006CC0F7E4FF1609F46DC08BE3F812D7CF99818B8138E0390F813031F0833011F08D
:2023E000392F02C0392F985021E0D80113964C91491708F420E041E0391708F040E091E0AD
:20240000F8015281351708F490E0322F342B932319F4242309F4B3CFFA80D12CC12C8430D7
:2024200048F490E0FC01E45EFE4FC080885E9E4FDC01DC90F7FE04C0BE01C8010E94490FCD
:2024400088818C0D888389818D0D8983FF0C91F796CFBE01C8010E94490F91CFC8010E94DA
:202460007D0D882309F463CFD8011696ED91FC91179715968C918E0F9F2F911D11928E1791
:202480009F07E1F77CCF1882F80182818983858181508A8383818B8372CFD80115968C91F9
:2024A00088836DCFF8018181FBCFDF92EF92FF920F931F93CF93DF93EC01D62E1CAD0BADF3
:2024C0007C0184E0E80EF11CE98DFA8DC7010995412F480F2D2D602FC7010E94F00F9BAD54
:2024E000890F8BAF81E090E0DF91CF911F910F91FF90EF90DF900895089590E080E00895F5
:20250000CF93DF93EC0188819981009711F00E94E720198218821D821C821B821A82DF917B
:20252000CF910895FC0180819181009711F00C94E72008950F931F93CF93DF93EC01888194
:202540009981009759F02A813B812617370730F081E0DF91CF911F910F9108958B016F5F07
:202560007F4F0E947021009759F0998388831B830A832C813D81232B59F7FC011082E8CFD9
:2025800080E0E7CFEF92FF920F931F93CF93DF936115710541F480E0DF91CF911F910F914A
:2025A000FF90EF90089541155105B1F07B01EC010C811D81040F151FB8010E949A12882396
:2025C00051F3288139818C819D81B701820F931F0E9441221D830C8381E0DECFCF93DF9318
:2025E000EC01FB0101900020E9F73197AF01461B570B0E94C212811103C0CE010E94801258
:20260000CE01DF91CF910895CF93DF93EC01FB0144815581608171810E94C212811103C088
:20262000CE010E948012CE01DF91CF910895EF92FF920F931F93CF93DF93EC017B018A012D
:20264000BA010E949A1281110BC0CE010E948012CE01DF91CF911F910F91FF90EF90089577
:202660001D830C83B701888199810E944122F0CFEF92FF920F931F93CF93DF93CDB7DEB739
:2026800029970FB6F894DEBF0FBECDBF8C01862FF8011182108213821282158214824AE053
:2026A0009E012F5F3F4F7901B90190E00E94071CF70101900020E9F73197AF014E195F0926
:2026C000B701C8010E94171329960FB6F894DEBF0FBECDBFDF91CF911F910F91FF90EF9079
:2026E0000895FB01DC0111961C921E9213961C921E92129715961C921E92149786179707C0
:2027000049F0608171816115710521F0448155810C9417130895FC01118210821382128263
:2027200015821482FB0101900020E9F73197AF01461B570B0C94171385ED8093BC00809188
:20274000890290918A02A0918B02B0918C020796A11DB11D23E0B695A795979587952A95FA
:20276000D1F72091BC0024FD03C01092870208954091890250918A0260918B0270918C02A2
:20278000452B462B472B69F30097A105B10541F025E32A95F1F700000197A109B109E1CF0B
:2027A000809188020C94D60A1F920F920FB60F9211242F933F938F939F93AF93BF93809184
:2027C000130290911402A0911502B09116023091120223E0230F2D3758F50196A11DB11D2E
:2027E000209312028093130290931402A0931502B09316028091170290911802A09119025B
:20280000B0911A020196A11DB11D8093170290931802A0931902B0931A02BF91AF919F9162
:202820008F913F912F910F900FBE0F901F90189526E8230F0296A11DB11DD2CF1F920F922A
:202840000FB60F9211242F933F934F935F936F937F938F939F93AF93BF93EF93FF93809154
:20286000B900887F803609F44AC0F0F5883209F4A5C018F5803109F499C0B8F4882309F472
:20288000F5C0883009F492C0FF91EF91BF91AF919F918F917F916F915F914F913F912F911C
:2028A0000F900FBE0F901F901895883109F486C0803251F78093650214C0803409F49BC061
:2028C00040F48033B9F38833F9F68093650285ECAEC0803509F483C0883509F494C08834A3
:2028E00099F60E949C13D0CF883909F48AC038F5883729F050F4883611F0803729F683E010
:202900008093870210920C0255C0883809F479C0803919F0803809F0B7CF80910C02803296
:2029200008F06FC0E0910C0281E08E0F80930C028091BB00F0E0E451FE4F80833BC0803BFB
:2029400039F0D0F4803A09F477C0883A09F09CCF84E0809387021092EB011092EA01F0E08B
:20296000E0E009958091EA0181110FC081E08093EA011092CA0109C0803C09F4A8CF883C13
:2029800009F4A5CF883B09F07FCFE091EB0181E08E0F8093EB01F0E0E653FE4F80818093F8
:2029A000BB009091EB018091EA0129C0809162028093BB0085EC8093BC0066CF909164022B
:2029C00080916302981758F5E091640281E08E0F80936402F0E0EF5BFD4F8081E9CFE091A7
:2029E000640281E08E0F809364028091BB00F0E0EF5BFD4F80839091640280916302981719
:202A0000C8F285E8D8CFE091640281E08E0F809364028091BB00F0E0EF5BFD4F8083809154
:202A2000660281115ECF81E08093610284EA8093BC001092870228CF85EC8093BC00109257
:202A4000870280910C02803230F4E0910C02F0E0E451FE4F108260910C0270E08CEE91E05B
:202A6000F0E0E0E0099510920C020ECF1092650238CF1F920F920FB60F9211242F933F930A
:202A80004F935F936F937F938F939F93AF93BF93CF93DF93EF93FF938091C801C091B102A0
:202AA000D0E087FF24C010928500109284008091C8018F5F8093C8018091C801082E000CEF
:202AC000990B8C179D0724F48091C8018C30C4F18091840090918500049680349C4908F43E
:202AE0007AC08091840090918500049676C08091C801082E000C990B8C179D07C4F6E0915F
:202B0000C8018E2FEE0F990BFC01EE0FFF1FE80FF91FE357FD4F808186FFC9CFE091C80189
:202B20008E2FEE0F990BFC01EE0FFF1FE80FF91FE357FD4F808160E08F730E94FF08B7CF18
:202B40002091840030918500E091C8018E2FEE0F990BFC01EE0FFF1FE80FF91FE357FD4FB5
:202B600081819281820F931F9093890080938800E091C8018E2FEE0F990BFC01EE0FFF1F06
:202B8000E80FF91FE357FD4F808186FF11C0E091C8018E2FEE0F990BFC01EE0FFF1FE80FA2
:202BA000F91FE357FD4F808161E08F730E94FF08FF91EF91DF91CF91BF91AF919F918F91CA
:202BC0007F916F915F914F913F912F910F900FBE0F901F90189580E49CE990938900809376
:202BE00088008FEF8093C801E3CFCF931092CE021092CD0288EE93E0A0E0B0E08093CF021F
:202C00009093D002A093D102B093D20284E291E09093CC028093CB021092DD021092DC02F9
:202C200086E391E09093DB028093DA021092150310921603109217031092E3021092E2028D
:202C40001092E5021092E4021092E70281E08093E60282E28093E8021092ED021092EC02FA
:202C6000E1E0F3E08FE093E0CFEFC1938E179F07E1F781E08093FE0223E638E03093F4025B
:202C80002093F3028093F5021092F6021092F70280E48093F8021092F90282E698E090933C
:202CA000100380930F0388E091E09093E1028093E00210920C030E94630F86E391E0909346
:202CC000DB028093DA028BEC92E09093D8028093D7021092D9028091B1028C3008F06BC036
:202CE00091E0980F9093B1028093C80290E0FC01EE0FFF1FE80FF91FE357FD4F88EB9BE0FE
:202D0000928381831092B3021092BA021092C1021092C2021092C3021092C40281E08093D7
:202D2000C0028093BD021092BE0292E09093BF028093B20288E490E09093B7028093B602FD
:202D40000E944B209093BC028093BB02009709F435C028E4FC0111922A95E9F788E190E008
:202D60009093B5028093B40286E090E09093B9028093B8028091B302882341F061E086E0E6
:202D80000E944B0960E086E00E94FF08E2EFF1E0E491F0E0EE0FFF1FEE51FE4F8591949125
:202DA0009093C6028093C502E4EDF1E0E491E093C702CF910895C093C802A4CF1092B70213
:202DC0001092B6021092B5021092B402CDCFCF93DF93CDB7DEB7CD54D1090FB6F894DEBF76
:202DE0000FBECDBF789484B5826084BD84B5816084BD85B5826085BD85B5816085BD8091EB
:202E00006E00816080936E00109281008091810082608093810080918100816080938100B0
:202E2000809180008160809380008091B10084608093B1008091B00081608093B0008091AD
:202E40007A00846080937A0080917A00826080937A0080917A00816080937A0080917A0009
:202E6000806880937A001092C10060E08EE00E944B098091C8028C3008F053C061E08BE088
:202E80000E944B098091C802282F30E0F901EE0FFF1FE20FF31FE357FD4F9081907C9B6044
:202EA00090839BE09093C90297EE9093CA022CE0622F0E94901F829FB001112430E020E01D
:202EC000AB01420F531FFA01EE0FFF1FE40FF51FE357FD4F908196FD16C02F5F3F4F2C30EE
:202EE000310571F781110FC01092800082E0809381001092850010928400B19A80916F00A3
:202F0000826080936F00E091C8028E2F90E0FC01EE0FFF1FE80FF91FE357FD4F8081806453
:202F200080838091B8029091B90297FD08C061E00E944B0960E08091B8020E94FF0881E03F
:202F40008093B3026091BA02653629F12091BB023091BC026150C9F070E08FEF94E60E9406
:202F60009C1FF9014091B6025091B702CF01821B930B8417950760F44081469FC001479F96
:202F8000900D112490833196EDCF70E060E0E9CF85E68093BA020E94A109812C44E0942E68
:202FA000A12CB12C54EB452E512C612C712C22242A94312C80911703811105C081E08093B7
:202FC00017030E94630F0091E0021091E102E0910F03F091100382E00995E0910F03F091B1
:202FE000100381E0099530E020E044E1B8018EED92E00E945F0F21E133E047E1B8018EED63
:2030000092E00E945F0FE0910F03F091100380E009958091E2029091E3028050924099F1F2
:2030200080E092E09093E3028093E2028091F50281118FC1E5E0F2E0E491E093F602ECE092
:20304000F2E0E491E093F7028091F602082E000C990B2091F702821B910927FD93952091F0
:20306000F802203441F0829FC001112436E0969587953A95E1F78093F902A3E6B8E0B09344
:20308000F402A093F3020E9489089C01ACE9BFEF0E94C41FA50194010E94F61EC9018C59DA
:2030A0009F4F4AE0BE016F5F7F4F0E94FC1B60E471E00E943622BC0180E10E9403110E94DF
:2030C000890824EB30E0DC010E94CC1FA50194010E94F61EC901203242E03407D4F54091D2
:2030E000C90228E830E0241B310947FD3395220F331F220F331F6901330FEE08FF08209100
:20310000CA0248E552E0421B510927FD5395440F551F440F551F052E000C660B770B9A0166
:20312000AB012C193D094E095F09DC01853B910514F0A4EBB0E0B7FF02C0B0E0A0E00E9419
:20314000201FA30192010E94F61E2C0D3D1D4E1D5F1D4091C8024C3078F55091C90288E829
:2031600090E0851B910957FD9395880F991F880F991F2817390784F05091CA0288E592E00C
:20318000851B910957FD9395880F991F880F991F281739070CF4C9010297880F991F2FB7C4
:2031A000F89450E0FA01EE0FFF1FE40FF51FE357FD4F928381832FBF8091D7029091D802C4
:2031C000A1E0A0931D0228E620933F0210921E0210924002DC01ED91FC910190F081E02D7D
:2031E00060E0099581E00E94E00B8093D902882309F4C1C0CE0101960E9465081C81ED806D
:203200000E8110931102E092100200930F02602FCE0101960E94381380910F0261E471E0A7
:203220008A3010F46EE371E0CE0188960E948B1360911002CE018E960E94381380911002FB
:2032400061E471E08A3010F46EE371E0CE01C4960E948B1360911102CE01805C9F4F0E94D0
:203260003813BE01605C7F4FCE01CA960E94711362E471E0CE01CA960E94EE12BE016C5C76
:203280007F4F0E940413BE01625D7F4F0E94041362E471E00E94EE12BE01685D7F4F0E9475
:2032A0000413BE016F5F7F4F0E940413BC01CE018A5B9F4F0E947113CE01CA960E949212E9
:2032C000CE01805C9F4F0E949212CE01C4960E949212CE018E960E949212CE0188960E94D8
:2032E0009212CE0101960E94921228966EAD7FAD28978EE10E9403118091D7029091D802B0
:20330000B1E0B0931D0228E620933F0210921E0210924002DC01ED91FC910190F081E02D1B
:2033200061E1099581E00E94E00B8093D90281110DC082E00E94150B10920E0280930D027A
:20334000823009F4C5C084E08093D90270E060E0E3C0813041F4EFE0F2E0E491E093F6024D
:20336000E0E1F2E06ECEEDE0F2E0E491E093F602EEE0F2E066CE87E00E94150B10920E0250
:2033800080930D028730A1F084E08093D902CE0101960E94650886E0FE013196DE019296C9
:2033A00001900D928A95E1F71DA1EEA00FA129CF8091D7029091D802DC01ED91FC9102849F
:2033C000F385E02D09958F77282F30E074E0359527957A95E1F7922F990F990F022F091B36
:2033E000000F080F8091D7029091D802DC01ED91FC910284F385E02D09959C01E4E0359506
:203400002795EA95E1F72F703327922F990F990FE22EE91AEE0CE80E8091D7029091D802A7
:20342000DC01ED91FC910284F385E02D099586FF3FC0982F9F71292F30E064E0359527956E
:203440006A95E1F7322F330F330F122F131B110F190F85FD145F8091D7029091D802DC0142
:20346000ED91FC910284F385E02D09958091D7029091D802DC01ED91FC910284F385E02DC0
:2034800009958091D7029091D802DC01ED91FC910284F385E02D09958091D7029091D80233
:2034A000DC01ED91FC910284F385E02D0995A9CE9C0154E0359527955A95E1F72F703327ED
:2034C000922F990F990F122F191B110F180FC3CF8091D7029091D802DC01ED91FC9102843A
:2034E000F385E02D0995182F8091D7029091D802DC01ED91FC910284F385E02D0995807CF0
:20350000912F46E0959587954A95E1F729E1289FB001299F700D112419A618A61BA61AA6CE
:203520001DA61CA6072E000C880B990B0E946A1E20E030E048EC52E40E94D91F8E010F5F53
:203540001F4F22E044E00E94821B009709F4C5C0FC0101900020E9F73197AF01481B590BB2
:20356000BC01CE0188960E941713BE01685D7F4FCE0101960E94711364E471E0CE010196F8
:203580000E94EE12BC01CE018E960E947113CE0101960E949212CE0188960E9492126EA5C1
:2035A0007FA58CE20E940311CE018E960E949212CE018A5B9F4F0E949212E091EC02F091C2
:2035C000ED02309719F08EED92E009950091E0021091E102E0910F03F091100382E0099593
:2035E000E0910F03F091100381E0099530E020E045E1B8018EED92E00E945F0FE82E882308
:2036000041F021E133E047E1B8018EED92E00E945F0FE0910F03F091100380E00995E11080
:20362000F8CC10E000E00E94EC1B2E969FAF8EAF2E970E94EC1B6C010E94EC1B2091B40213
:203640003091B50202171307F8F4B1010E94B01F282FC601B1010E94B01F90E0B0E0A0E0EF
:203660004427582F692F7A2F6A017B01E22A2E968EAD9FAD2E97B1010E94B01FB701A60192
:20368000482BC8010E949A080E94A1090E94740A0F5F1F4F0831110531F610E000E080910B
:2036A000B4029091B5020817190730F440E050E0BA01C8010E949A080E94A1090E94740A95
:2036C0000F5F1F4F0831110551F780E090E0892B09F470CC0E9400006DCCCE0188960E9450
:2036E000801243CF8091BB029091BC020E94E7208091B8029091B90297FD03C060E00C94F2
:203700004B090895EF920F931F93CF93DF93E80134E047FD34E1042E000C550B57FF03C002
:20372000519541955109E32E022F242FAE010E94211CCE01DF91CF911F910F91EF90089545
:203740008F929F92AF92BF92CF92DF92EF92FF92CF93DF93EC01688179818A819B81611560
:2037600071058105910521F464E279ED8BE597E02DE133EF41E050E00E94F61E49015A0133
:203780009B01AC01A7EAB1E40E94151F6B017C01ACEEB4EFA50194010E94231FDC01CB01F6
:2037A0008C0D9D1DAE1DBF1DB7FF03C00197A109B04888839983AA83BB839F77DF91CF91E4
:2037C000FF90EF90DF90CF90BF90AF909F908F9008950E94A01B08958EE091E00E94A01B5E
:2037E0000895B0E0A0E080930E0190930F01A0931001B09311010895BB274A3031F4992354
:2038000022F4BDE2909581959F4F0C94081CBB27FB015527AA27880F991FAA1FA41710F008
:20382000A41B83955051B9F7A05DAA3308F0A95DA193009779F7B111B1931192CB010C9438
:20384000581EA9E0B0E0E7E2FCE10C942E1F6A01F22EB02E102FFBE3AF2EA01608F41BE333
:203860001F5F012F27E0AE014F5F5F4F0E94801DBC018981982F9970913009F43FC09BE278
:20388000E1FC04C09E2D9170E0FC3AC05E2D5071E82FE87083FF46C084E0911101C083E078
:2038A000EF2DE81B8F1508F0E0E0D6018E2F20E2552351F1992329F0D6019C93C601019604
:2038C0006C0196012D5F3F4FE2FE24C08EE4D6018C9391E411969C93119712968C93D9010A
:2038E0008E2F90E281111BC0E20FF32FF11D10828EEF9FEF2996ECE00C944A1F9DE2C6CFC6
:2039000090E2C4CF2D9381508111FCCFCE0ED11CE0E0D0CF8EE6D6018C9391E6DBCF9D93D1
:203920008150E0CF482F447082FF3DC084E0911101C083E08F1510F4EF2DE81BD6018E2FD9
:2039400020E2552309F1992329F0D6019C93C60101966C0196012D5F3F4FE2FE1BC089E474
:20396000D6018C938EE411968C93119786E412968C93D9018E2F90E2882309F4B5CF9D93DB
:203980008150FACF2D9381508111FCCFCE0ED11CE0E0D9CF89E6D6018C938EE611968C93CF
:2039A000119786E6E4CF9B0177FF02C030E020E0A1E0B0E0911102C0B0E0A0E0F901319616
:2039C000AE0FBF1F8B2C912CBB2009F461C05401EFEFAE1ABE0AAA0DBB1DFA161B0619F053
:2039E00014F04F2D4A1B511188C0E3FC59C07601A42FB0E2A1114FC0C40ED11C992309F42B
:203A00005BC040E0D6011196F60190836D01552309F448C0012F060F9A81582F507184FFCD
:203A200003C0913309F4015010160CF047C0093008F008E0EEE2FE2E5B01A01AB10885011E
:203A40009194819491082F3F320729F4D601FC92F60131966F016217730794F10217130791
:203A60007CF5DB01A21BB30BAA24A394B12CAC0EBD1EAA0DBB1D11968C9121503109D60132
:203A8000119628153905F4F0F60180836D01DBCFB12CA12CA0CFF701B1937F01A150AACFCF
:203AA0009111B0CFD601942F50E302C05D9391509111FCCFC40ED11C40E0ACCF01E0BACF54
:203AC00080E3DBCF6217730731F4963388F4953311F4552369F0F6018083FD01842F90E2C1
:203AE000811108C0A40FB11D1C9290E080E002CF81E3F1CF91938150F3CF911183CF8ACF74
:203B0000283008F027E03327DA01990F311D87FD916000966105710539F432602E5F3D9320
:203B200030E32A95E1F708959F3F30F080387105610509F03C5F3C5F3D93913008F080680C
:203B4000911DDF93CF931F930F93FF92EF92192F987F9695E92F96959695E90FFF27EE5326
:203B6000FF4F99273327EE24FF24A701E70105900894079428F4360FE71EF81E491F511DFA
:203B8000660F771F881F991F0694A1F70590079428F4E70EF81E491F561FC11D770F881F4A
:203BA000991F661F0694A1F70590079428F4F80E491F561FC71FD11D880F991F661F771F29
:203BC0000694A1F70590079420F4490F561FC71FD81F990F661F771F881F0694A9F784910C
:203BE0001095177041F0D695C79557954795F794E7941A95C1F7E8E6F0E068941590159187
:203C000035916591959105907FE27395E118F10A430B560BC90BD009C0F7E10CF11E431F5F
:203C2000561FC91FD01D7EF4703311F48A95E6CFE894015030F0080F0AF40027021708F40E
:203C4000202F2395022F7A3328F079E37D932A95E9F710C07D932A9589F60694979567957C
:203C6000379517951794E118F10A430B560BC90BD00998F023957E9173957A3308F070E382
:203C80007C932013B8F77E9170617D9330F0839571E37D9370E32A95E1F71124EF90FF907A
:203CA0000F911F91CF91DF91992787FD90950895DC01FC01672F71917723E1F7329704C06D
:203CC0007C916D9370836291AE17BF07C8F30895E89409C097FB3EF49095809570956195D0
:203CE0007F4F8F4F9F4F9923A9F0F92F96E9BB279395F695879577956795B795F111F8CF60
:203D0000FAF4BB0F11F460FF1BC06F5F7F4F8F4F9F4F16C0882311F096E911C0772321F0C7
:203D20009EE8872F762F05C0662371F096E8862F70E060E02AF09A95660F771F881FDAF764
:203D4000880F9695879597F9089597F99F6780E870E060E008959FEF80EC089500240A94D4
:203D60001616170618060906089500240A9412161306140605060895092E0394000C11F48C
:203D8000882352F0BB0F40F4BF2B11F460FF04C06F5F7F4F8F4F9F4F089557FD9058440F92
:203DA000551F59F05F3F71F04795880F97FB991F61F09F3F79F087950895121613061406DE
:203DC000551FF2CF4695F1DF08C0161617061806991FF1CF86957105610508940895E894B0
:203DE000BB2766277727CB0197F90895052E97FB1EF400940E940D1F57FD07D00E945F1F39
:203E000007FC03D04EF40C940D1F50954095309521953F4F4F4F5F4F0895909580957095D3
:203E200061957F4F8F4F9F4F08950E94811FA59F900DB49F900DA49F800D911D11240895F2
:203E4000B7FF0C94151F0E94151F821B930B08952F923F924F925F926F927F928F929F9262
:203E6000AF92BF92CF92DF92EF92FF920F931F93CF93DF93CDB7DEB7CA1BDB0B0FB6F8946F
:203E8000DEBF0FBECDBF09942A88398848885F846E847D848C849B84AA84B984C884DF8031
:203EA000EE80FD800C811B81AA81B981CE0FD11D0FB6F894DEBF0FBECDBFED010895A1E269
:203EC0001A2EAA1BBB1BFD010DC0AA1FBB1FEE1FFF1FA217B307E407F50720F0A21BB30B81
:203EE000E40BF50B661F771F881F991F1A9469F760957095809590959B01AC01BD01CF0140
:203F00000895A29FB001B39FC001A39F700D811D1124911DB29F700D811D1124911D0895D3
:203F2000991B79E004C0991F961708F0961B881F7A95C9F780950895AA1BBB1B51E107C0E6
:203F4000AA1FBB1FA617B70710F0A61BB70B881F991F5A95A9F780959095BC01CD01089570
:203F600097FB072E16F4009407D077FD09D00E949C1F07FC05D03EF4909581959F4F08958B
:203F8000709561957F4F08950E94811F332312F48A1B9B0B0C94CE1F0E94811FB7FF0895B0
:203FA000821B930B0895EE0FFF1F0590F491E02D09940E94ED1F0C94BC1E0E94B51E58F065
:203FC0000E94AE1E40F029F45F3F29F00C94A51E51110C94F01E0C94AB1E0E94CD1E68F3AB
:203FE0009923B1F3552391F3951B550BBB27AA2762177307840738F09F5F5F4F220F331FCD
:20400000441FAA1FA9F335D00E2E3AF0E0E832D091505040E695001CCAF72BD0FE2F29D0B9
:20402000660F771F881FBB1F261737074807AB07B0E809F0BB0B802DBF01FF2793585F4FF5
:204040003AF09E3F510578F00C94A51E0C94F01E5F3FE4F3983ED4F3869577956795B79509
:20406000F7959F5FC9F7880F911D9695879597F90895E1E0660F771F881FBB1F62177307FD
:204080008407BA0720F0621B730B840BBA0BEE1F88F7E09508950F931F93CF93DF938230FD
:2040A000910510F482E090E0E0911A03F0911B0330E020E0B0E0A0E0309799F42115310587
:2040C00009F44AC0281B390B24303105D8F58A819B816115710589F1FB0193838283FE0158
:2040E00011C0408151810281138148175907E0F04817590799F4109761F012960C93129782
:2041000013961C933296CF01DF91CF911F910F91089500931A0310931B03F4CF2115310552
:2041200051F04217530738F0A901DB019A01BD01DF01F801C1CFEF01F9CF90931B0380930F
:204140001A03CDCFFE01E20FF31F819391932250310939832883D7CF20911803309119030A
:20416000232B41F4209114013091150130931903209318032091120130911301211531056D
:2041800041F42DB73EB74091160150911701241B350BE0911803F0911903E217F307A0F401
:2041A0002E1B3F0B2817390778F0AC014E5F5F4F2417350748F04E0F5F1F50931903409321
:2041C0001803819391939FCFF0E0E0E09CCFCF93DF930097E9F0FC01329713821282A091BF
:2041E0001A03B0911B03ED0130E020E01097A1F420813181820F931F2091180330911903CA
:204200002817390709F061C0F0931903E0931803DF91CF910895EA01CE17DF07E8F54A810D
:204220005B819E0141155105B1F7E901FB83EA8349915991C40FD51FEC17FD0761F48081F2
:2042400091810296840F951FE90199838883828193819B838A83F0E0E0E012968D919C9197
:2042600013970097B9F52D913C911197CD010296820F931F2091180330911903281739074B
:2042800039F6309751F510921B0310921A03B0931903A0931803BCCFD383C28340815181FD
:2042A000840F951FC817D90761F44E5F5F4F88819981480F591F518340838A819B81938382
:2042C00082832115310509F0B0CFF0931B03E0931A039ECFFD01DC01C0CF13821282D7CF1E
:2042E000B0E0A0E0E6E7F1E20C942A1F8C01009751F4CB010E944B208C01C801CDB7DEB774
:20430000E0E10C94461FFC01E60FF71F9C0122503109E217F30708F49DC0D901CD91DC9195
:204320001197C617D70798F0C530D10530F3CE0104978617970708F3C61BD70B2297C19334
:20434000D1936D937C93CF010E94E720D6CF5B01AC1ABD0A4C018C0E9D1EA0911A03B091B2
:204360001B03512C412CF12CE12C109731F580911803909119038815990509F05CC0461629
:20438000570608F058C08091120190911301009741F48DB79EB74091160150911701841B72
:2043A000950BE817F90708F055C0F0931903E0931803F90171836083A0CF8D919C911197F1
:2043C00012966C90129713967C901397A815B90559F56C0142E0C40ED11CCA14DB0420F14C
:2043E000AC014A195B09DA011296159780F06282738251834083D9016D937C93E114F10467
:2044000071F0D7011396FC93EE93129776CF22968C0F9D1FF90191838083F301EFCFF09367
:204420001B03E0931A0369CF4816590608F42C017D01D3019ACFCB010E944B207C01009708
:2044400049F0AE01B8010E942D22C8010E94E720870153CF10E000E050CFFB01DC0102C024
:2044600001900D9241505040D8F70895FB01DC010D900020E9F7119701900D920020E1F739
:204480000895FB01DC0101900D920020E1F7089518E0C7E3D8E004C0FE010E94D31F219679
:2044A000C833D107C9F7F894FFCF08400000008048012A110001510E0100000000001C0343
:2044C0008000000100FF0100FF00000000004E0D210D7D12F70C1A0D070DF80C0000000002
:2044E0005512A90A7D127C12300025003A0020430000FFFFFFFFFFFFFFFFFFFFFFFFFFFFA1
:20450000FFFFFFFFFFFFFFFFFFFFFFFFFFFFFFFFFFFFFFFFFFFFFFFFFFFFFFFFFFFFFFFFBB
:20452000FFFFFFFFFFFFFFFFFFFFFFFFFFFFFFFFFFFFFFFFFFFFFFFFFFFFFFFFFFFFFFFF9B
:20454000FFFFFFFFFFFFFFFFFFFFFFFFFFFFFFFFFFFFFFFFFFFFFFFFFFFFFFFFFFFFFFFF7B
:20456000FFFFFFFFFFFFFFFFFFFFFFFFFFFFFFFFFFFFFFFFFFFFFFFFFFFFFFFFFFFFFFFF5B
:207E0000112484B714BE81FFF0D085E08093810082E08093C00088E18093C10086E08093FC
:207E2000C20080E18093C4008EE0C9D0259A86E020E33CEF91E0309385002093840096BBAD
:207E4000B09BFECF1D9AA8958150A9F7CC24DD2488248394B5E0AB2EA1E19A2EF3E0BF2E79
:207E6000A2D0813461F49FD0082FAFD0023811F0013811F484E001C083E08DD089C0823404
:207E800011F484E103C0853419F485E0A6D080C0853579F488D0E82EFF2485D0082F10E0A0
:207EA000102F00270E291F29000F111F8ED068016FC0863521F484E090D080E0DECF84364D
:207EC00009F040C070D06FD0082F6DD080E0C81680E7D80618F4F601B7BEE895C0E0D1E0ED
:207EE00062D089930C17E1F7F0E0CF16F0E7DF0618F0F601B7BEE89568D007B600FCFDCF1A
:207F0000A601A0E0B1E02C9130E011968C91119790E0982F8827822B932B1296FA010C016F
:207F200087BEE89511244E5F5F4FF1E0A038BF0751F7F601A7BEE89507B600FCFDCF97BE85
:207F4000E89526C08437B1F42ED02DD0F82E2BD03CD0F601EF2C8F010F5F1F4F84911BD0B8
:207F6000EA94F801C1F70894C11CD11CFA94CF0CD11C0EC0853739F428D08EE10CD085E9AE
:207F80000AD08FE07ACF813511F488E018D01DD080E101D065CF982F8091C00085FFFCCF0A
:207FA0009093C60008958091C00087FFFCCF8091C00084FD01C0A8958091C6000895E0E68F
:207FC000F0E098E1908380830895EDDF803219F088E0F5DFFFCF84E1DECF1F93182FE3DF47
:207FE0001150E9F7F2DF1F91089580E0E8DFEE27FF270994FFFFFFFFFFFFFFFFFFFF040425
:00000001FF
